0010004340010000000001001201200100001001DEBIT TXN           00000000000010000TEST REF NBR             100010100AB0000110001TST ?
0010004340010000000002001201236500001001DEBIT TXN           00000000000020000TEST REF NBR             100010200AB0000110001TST ?
0010004340010000000003001201200100001001DEBIT TXN           00000000000010000TEST REF NBR             100010100AB0000110001TST ?
0010004340010000000004001201236500001001DEBIT TXN           00000000000020000TEST REF NBR             100010200AB0000110001TST ?
0010004340010000000005001201200100001001DEBIT TXN           00000000000010000TEST REF NBR             100010100AB0000110001TST ?
0010004340010000000006001201236500001001DEBIT TXN           00000000000020000TEST REF NBR             100010200AB0000110001TST ?
0010004340010000000007001201200100001001DEBIT TXN           00000000000010000TEST REF NBR             100010100AB0000110001TST ?
0010004340010000000008001201236500001001DEBIT TXN           00000000000020000TEST REF NBR             100010200AB0000110001TST ?
0010004340010000000009001201200100001001DEBIT TXN           00000000000010000TEST REF NBR             100010100AB0000110001TST ?
0010004340010000000010001201236500001001DEBIT TXN           00000000000020000TEST REF NBR             100010200AB0000110001TST ?
0010004340010000000011001201200100001001DEBIT TXN           00000000000010000TEST REF NBR             100010100AB0000110001TST ?
0010004340010000000012001201236500001001DEBIT TXN           00000000000020000TEST REF NBR             100010200AB0000110001TST ?
0010004340010000000013001201200100001001DEBIT TXN           00000000000010000TEST REF NBR             100010100AB0000110001TST ?
0010004340010000000014001201236500001001DEBIT TXN           00000000000020000TEST REF NBR             100010200AB0000110001TST ?
0010004340010000000015001201200100001001DEBIT TXN           00000000000010000TEST REF NBR             100010100AB0000110001TST ?
0010004340010000000016001201236500001001DEBIT TXN           00000000000020000TEST REF NBR             100010200AB0000110001TST ?
0010004340010000000017001201200100001001DEBIT TXN           00000000000010000TEST REF NBR             100010100AB0000110001TST ?
0010004340010000000018001201236500001001DEBIT TXN           00000000000020000TEST REF NBR             100010200AB0000110001TST ?
